{
  "_format": "hh-sol-artifact-1",
  "contractName": "BillOfLading",
  "sourceName": "contracts/BillOfLading.sol",
  "abi": [
    {
      "inputs": [
        {
          "internalType": "address",
          "name": "",
          "type": "address"
        },
        {
          "internalType": "uint256",
          "name": "",
          "type": "uint256"
        }
      ],
      "name": "Bills",
      "outputs": [
        {
          "internalType": "address",
          "name": "seller",
          "type": "address"
        },
        {
          "internalType": "address",
          "name": "transport",
          "type": "address"
        },
        {
          "internalType": "address",
          "name": "buyer",
          "type": "address"
        },
        {
          "internalType": "address",
          "name": "token",
          "type": "address"
        },
        {
          "internalType": "bool",
          "name": "status",
          "type": "bool"
        },
        {
          "internalType": "uint256",
          "name": "quality",
          "type": "uint256"
        },
        {
          "internalType": "string",
          "name": "IPFSnotes",
          "type": "string"
        },
        {
          "internalType": "uint256",
          "name": "quantity",
          "type": "uint256"
        },
        {
          "internalType": "uint256",
          "name": "value",
          "type": "uint256"
        },
        {
          "internalType": "uint256",
          "name": "weight",
          "type": "uint256"
        },
        {
          "internalType": "uint256",
          "name": "classification",
          "type": "uint256"
        },
        {
          "internalType": "uint256",
          "name": "shipmentDate",
          "type": "uint256"
        },
        {
          "internalType": "uint256",
          "name": "shipmentFee",
          "type": "uint256"
        },
        {
          "internalType": "bool",
          "name": "delivered",
          "type": "bool"
        }
      ],
      "stateMutability": "view",
      "type": "function"
    },
    {
      "inputs": [
        {
          "internalType": "address",
          "name": "transport",
          "type": "address"
        },
        {
          "internalType": "address",
          "name": "buyer",
          "type": "address"
        },
        {
          "internalType": "address",
          "name": "token",
          "type": "address"
        },
        {
          "internalType": "uint256",
          "name": "quantity",
          "type": "uint256"
        },
        {
          "internalType": "uint256",
          "name": "value",
          "type": "uint256"
        },
        {
          "internalType": "uint256",
          "name": "weight",
          "type": "uint256"
        },
        {
          "internalType": "uint256",
          "name": "shipmentDate",
          "type": "uint256"
        },
        {
          "internalType": "uint256",
          "name": "shipmentFee",
          "type": "uint256"
        },
        {
          "internalType": "uint256",
          "name": "classification",
          "type": "uint256"
        }
      ],
      "name": "CreateBill",
      "outputs": [
        {
          "internalType": "uint256",
          "name": "",
          "type": "uint256"
        }
      ],
      "stateMutability": "nonpayable",
      "type": "function"
    },
    {
      "inputs": [
        {
          "internalType": "address",
          "name": "seller",
          "type": "address"
        },
        {
          "internalType": "uint256",
          "name": "ID",
          "type": "uint256"
        },
        {
          "internalType": "uint256",
          "name": "quality",
          "type": "uint256"
        },
        {
          "internalType": "bool",
          "name": "status",
          "type": "bool"
        },
        {
          "internalType": "uint256",
          "name": "weight",
          "type": "uint256"
        },
        {
          "internalType": "uint256",
          "name": "classification",
          "type": "uint256"
        },
        {
          "internalType": "string",
          "name": "IPFSnotes",
          "type": "string"
        },
        {
          "internalType": "address",
          "name": "token",
          "type": "address"
        }
      ],
      "name": "acceptBillofLading",
      "outputs": [
        {
          "internalType": "uint256",
          "name": "",
          "type": "uint256"
        }
      ],
      "stateMutability": "nonpayable",
      "type": "function"
    },
    {
      "inputs": [
        {
          "internalType": "address",
          "name": "seller",
          "type": "address"
        },
        {
          "internalType": "uint256",
          "name": "ID",
          "type": "uint256"
        },
        {
          "internalType": "address",
          "name": "token",
          "type": "address"
        }
      ],
      "name": "agreeToShipment",
      "outputs": [
        {
          "internalType": "uint256",
          "name": "",
          "type": "uint256"
        }
      ],
      "stateMutability": "nonpayable",
      "type": "function"
    },
    {
      "inputs": [
        {
          "internalType": "uint256",
          "name": "amount",
          "type": "uint256"
        },
        {
          "internalType": "uint256",
          "name": "fee",
          "type": "uint256"
        }
      ],
      "name": "calculatePayment",
      "outputs": [
        {
          "internalType": "uint256",
          "name": "",
          "type": "uint256"
        }
      ],
      "stateMutability": "pure",
      "type": "function"
    },
    {
      "inputs": [
        {
          "internalType": "address",
          "name": "seller",
          "type": "address"
        },
        {
          "internalType": "uint256",
          "name": "ID",
          "type": "uint256"
        }
      ],
      "name": "updateDelivery",
      "outputs": [
        {
          "internalType": "bool",
          "name": "",
          "type": "bool"
        }
      ],
      "stateMutability": "nonpayable",
      "type": "function"
    },
    {
      "inputs": [
        {
          "internalType": "uint256",
          "name": "ID",
          "type": "uint256"
        }
      ],
      "name": "withdrawFunds",
      "outputs": [
        {
          "internalType": "bool",
          "name": "",
          "type": "bool"
        }
      ],
      "stateMutability": "nonpayable",
      "type": "function"
    }
  ],
  "bytecode": "0x608060405234801561001057600080fd5b50611071806100206000396000f3fe608060405234801561001057600080fd5b506004361061007d5760003560e01c80636e246a5b1161005b5780636e246a5b146104b257806379fc3e55146104c5578063c88b35e8146104d8578063f165978e146104eb57600080fd5b8063155dd5ee1461008257806343752c32146100aa5780634a13bd1a146100d7575b600080fd5b610095610090366004610e45565b61052f565b60405190151581526020015b60405180910390f35b6100bd6100b8366004610caf565b61068a565b6040516100a19e9d9c9b9a99989796959493929190610ecd565b6104a46100e5366004610c34565b60008060016000336001600160a01b03166001600160a01b0316815260200190815260200160002080549050905033600080336001600160a01b03166001600160a01b03168152602001908152602001600020600083815260200190815260200160002060000160006101000a8154816001600160a01b0302191690836001600160a01b031602179055508a600080336001600160a01b03166001600160a01b03168152602001908152602001600020600083815260200190815260200160002060010160006101000a8154816001600160a01b0302191690836001600160a01b0316021790555089600080336001600160a01b03166001600160a01b03168152602001908152602001600020600083815260200190815260200160002060020160006101000a8154816001600160a01b0302191690836001600160a01b0316021790555088600080336001600160a01b03166001600160a01b03168152602001908152602001600020600083815260200190815260200160002060030160006101000a8154816001600160a01b0302191690836001600160a01b031602179055506001600080336001600160a01b03166001600160a01b03168152602001908152602001600020600083815260200190815260200160002060030160146101000a81548160ff0219169083151502179055506005600080336001600160a01b03166001600160a01b0316815260200190815260200160002060008381526020019081526020016000206004018190555087600080336001600160a01b03166001600160a01b0316815260200190815260200160002060008381526020019081526020016000206006018190555085600080336001600160a01b03166001600160a01b0316815260200190815260200160002060008381526020019081526020016000206008018190555084600080336001600160a01b03166001600160a01b031681526020019081526020016000206000838152602001908152602001600020600a018190555083600080336001600160a01b03166001600160a01b031681526020019081526020016000206000838152602001908152602001600020600b018190555082600080336001600160a01b03166001600160a01b0316815260200190815260200160002060008381526020019081526020016000206009018190555060016000336001600160a01b03166001600160a01b03168152602001908152602001600020819080600181540180825580915050600190039060005260206000200160009091909190915055869150509998505050505050505050565b6040519081526020016100a1565b6104a46104c0366004610e5e565b61079d565b6104a46104d3366004610cd9565b6107c5565b6104a46104e6366004610d15565b610974565b6100956104f9366004610caf565b6001600160a01b039190911660009081526020818152604080832093835292905220600c01805460ff1916600190811790915590565b336000908152602081815260408083208484529091528120600c015460ff16151560011461059a5760405162461bcd60e51b815260206004820152601360248201527211dbdbd91cc81b9bdd0819195b1a5d995c9959606a1b60448201526064015b60405180910390fd5b3360009081526020818152604080832085845290915281206007810154600b9091015490916105c9838361079d565b905060006105d78285610fac565b336000818152602081815260408083208b84529091529081902060030154905163a9059cbb60e01b81526004810192909252602482018390529192506001600160a01b0390911690819063a9059cbb90604401602060405180830381600087803b15801561064457600080fd5b505af1158015610658573d6000803e3d6000fd5b505050506040513d601f19601f8201168201806040525081019061067c9190610e21565b506001979650505050505050565b60006020818152928152604080822090935290815220805460018201546002830154600384015460048501546005860180546001600160a01b0396871697958716969485169594841694600160a01b90940460ff169391906106eb90610fc3565b80601f016020809104026020016040519081016040528092919081815260200182805461071790610fc3565b80156107645780601f1061073957610100808354040283529160200191610764565b820191906000526020600020905b81548152906001019060200180831161074757829003601f168201915b505050506006830154600784015460088501546009860154600a870154600b880154600c90980154969794969395509193909260ff168e565b600080836107b384670de0b6b3a7640000610f8d565b6107bd9190610f6b565b949350505050565b6001600160a01b03838116600090815260208181526040808320868452909152812060020154909116331461083c5760405162461bcd60e51b815260206004820152601f60248201527f55736572206973206e6f74206275796572207365742062792073656c6c6572006044820152606401610591565b6001600160a01b038481166000908152602081815260408083208784529091529020600301548116908316146108c45760405162461bcd60e51b815260206004820152602760248201527f496e636f727265637420746f6b656e20616464726573732061732070657220636044820152661bdb9d1c9858dd60ca1b6064820152608401610591565b6001600160a01b03848116600090815260208181526040808320878452909152908190206007015490516323b872dd60e01b81523360048201523060248201526044810182905290918416906323b872dd90606401602060405180830381600087803b15801561093357600080fd5b505af1158015610947573d6000803e3d6000fd5b505050506040513d601f19601f8201168201806040525081019061096b9190610e21565b50949350505050565b6001600160a01b038881166000908152602081815260408083208b845290915281206001015490911633146109eb5760405162461bcd60e51b815260206004820181905260248201527f55736572206e6f742064657369676e61746564206173207472616e73706f72746044820152606401610591565b6001600160a01b038981166000908152602081815260408083208c845290915290206002015416610a505760405162461bcd60e51b815260206004820152600f60248201526e109d5e595c881b9bdd08199bdd5b99608a1b6044820152606401610591565b6001600160a01b0389166000908152602081815260408083208b8452825290912060038101805460ff60a01b1916600160a01b8a1515021790556004810189905560088101879055600981018690558451610ab392600590920191860190610b7f565b506001600160a01b0389166000908152602081815260408083208b845290915281206007810154600b909101549091610aec838361079d565b60405163a9059cbb60e01b8152336004820152602481018290529091506001600160a01b0386169063a9059cbb90604401602060405180830381600087803b158015610b3757600080fd5b505af1158015610b4b573d6000803e3d6000fd5b505050506040513d601f19601f82011682018060405250810190610b6f9190610e21565b509b9a5050505050505050505050565b828054610b8b90610fc3565b90600052602060002090601f016020900481019282610bad5760008555610bf3565b82601f10610bc657805160ff1916838001178555610bf3565b82800160010185558215610bf3579182015b82811115610bf3578251825591602001919060010190610bd8565b50610bff929150610c03565b5090565b5b80821115610bff5760008155600101610c04565b80356001600160a01b0381168114610c2f57600080fd5b919050565b60008060008060008060008060006101208a8c031215610c5357600080fd5b610c5c8a610c18565b9850610c6a60208b01610c18565b9750610c7860408b01610c18565b989b979a5097986060810135985060808101359760a0820135975060c0820135965060e08201359550610100909101359350915050565b60008060408385031215610cc257600080fd5b610ccb83610c18565b946020939093013593505050565b600080600060608486031215610cee57600080fd5b610cf784610c18565b925060208401359150610d0c60408501610c18565b90509250925092565b600080600080600080600080610100898b031215610d3257600080fd5b610d3b89610c18565b975060208901359650604089013595506060890135610d598161102a565b94506080890135935060a0890135925060c089013567ffffffffffffffff80821115610d8457600080fd5b818b0191508b601f830112610d9857600080fd5b813581811115610daa57610daa611014565b604051601f8201601f19908116603f01168101908382118183101715610dd257610dd2611014565b816040528281528e6020848701011115610deb57600080fd5b826020860160208301376000602084830101528096505050505050610e1260e08a01610c18565b90509295985092959890939650565b600060208284031215610e3357600080fd5b8151610e3e8161102a565b9392505050565b600060208284031215610e5757600080fd5b5035919050565b60008060408385031215610e7157600080fd5b50508035926020909101359150565b6000815180845260005b81811015610ea657602081850181015186830182015201610e8a565b81811115610eb8576000602083870101525b50601f01601f19169290920160200192915050565b6001600160a01b038f811682528e811660208301528d1660408201526001600160a01b038c1660608201528a151560808201528960a08201526101c060c08201526000610f1e6101c083018b610e80565b90508860e08301528761010083015286610120830152856101408301528461016083015283610180830152610f586101a083018415159052565b9f9e505050505050505050505050505050565b600082610f8857634e487b7160e01b600052601260045260246000fd5b500490565b6000816000190483118215151615610fa757610fa7610ffe565b500290565b600082821015610fbe57610fbe610ffe565b500390565b600181811c90821680610fd757607f821691505b60208210811415610ff857634e487b7160e01b600052602260045260246000fd5b50919050565b634e487b7160e01b600052601160045260246000fd5b634e487b7160e01b600052604160045260246000fd5b801515811461103857600080fd5b5056fea26469706673582212207fd421fa37be598655f55d612cd0c5b51ba598c644812f470c571194e1c14d3e64736f6c63430008070033",
  "linkReferences": {},
  "deployedLinkReferences": {}
}